{
  "_format": "hh-sol-artifact-1",
  "contractName": "Supplychain",
  "sourceName": "contracts/supplychain.sol",
  "abi": [
    {
      "anonymous": false,
      "inputs": [
        {
          "indexed": false,
          "internalType": "string",
          "name": "dproductId",
          "type": "string"
        },
        {
          "indexed": false,
          "internalType": "string",
          "name": "dname",
          "type": "string"
        },
        {
          "indexed": false,
          "internalType": "string",
          "name": "dproductName",
          "type": "string"
        },
        {
          "indexed": false,
          "internalType": "string",
          "name": "status",
          "type": "string"
        }
      ],
      "name": "DistributorDetails",
      "type": "event"
    },
    {
      "anonymous": false,
      "inputs": [
        {
          "indexed": false,
          "internalType": "string",
          "name": "fproductId",
          "type": "string"
        },
        {
          "indexed": false,
          "internalType": "string",
          "name": "fname",
          "type": "string"
        },
        {
          "indexed": false,
          "internalType": "string",
          "name": "fproductName",
          "type": "string"
        },
        {
          "indexed": false,
          "internalType": "string",
          "name": "status",
          "type": "string"
        }
      ],
      "name": "FarmerDetails",
      "type": "event"
    },
    {
      "anonymous": false,
      "inputs": [
        {
          "indexed": false,
          "internalType": "string",
          "name": "rproductId",
          "type": "string"
        },
        {
          "indexed": false,
          "internalType": "string",
          "name": "rname",
          "type": "string"
        },
        {
          "indexed": false,
          "internalType": "string",
          "name": "rproductName",
          "type": "string"
        },
        {
          "indexed": false,
          "internalType": "string",
          "name": "status",
          "type": "string"
        }
      ],
      "name": "RetailerDetails",
      "type": "event"
    },
    {
      "inputs": [
        {
          "internalType": "string",
          "name": "_dproductId",
          "type": "string"
        },
        {
          "internalType": "string",
          "name": "_dname",
          "type": "string"
        },
        {
          "internalType": "string",
          "name": "_dlocation",
          "type": "string"
        },
        {
          "internalType": "uint256",
          "name": "_dquantity",
          "type": "uint256"
        },
        {
          "internalType": "uint256",
          "name": "_dprice",
          "type": "uint256"
        },
        {
          "internalType": "string",
          "name": "_dproductName",
          "type": "string"
        },
        {
          "internalType": "string",
          "name": "_dtransportMethod",
          "type": "string"
        }
      ],
      "name": "DistributorInsertDetails",
      "outputs": [],
      "stateMutability": "nonpayable",
      "type": "function"
    },
    {
      "inputs": [
        {
          "internalType": "string",
          "name": "_fproductId",
          "type": "string"
        },
        {
          "internalType": "string",
          "name": "_fname",
          "type": "string"
        },
        {
          "internalType": "string",
          "name": "_flocation",
          "type": "string"
        },
        {
          "internalType": "uint256",
          "name": "_fquantity",
          "type": "uint256"
        },
        {
          "internalType": "uint256",
          "name": "_fprice",
          "type": "uint256"
        },
        {
          "internalType": "string",
          "name": "_fproductName",
          "type": "string"
        },
        {
          "internalType": "uint256",
          "name": "_fbatchNo",
          "type": "uint256"
        },
        {
          "internalType": "string",
          "name": "_fmfgDate",
          "type": "string"
        },
        {
          "internalType": "string",
          "name": "_fexpiryDate",
          "type": "string"
        }
      ],
      "name": "FarmerInsertDetails",
      "outputs": [],
      "stateMutability": "nonpayable",
      "type": "function"
    },
    {
      "inputs": [
        {
          "internalType": "string",
          "name": "_rproductId",
          "type": "string"
        },
        {
          "internalType": "string",
          "name": "_rname",
          "type": "string"
        },
        {
          "internalType": "string",
          "name": "_rlocation",
          "type": "string"
        },
        {
          "internalType": "uint256",
          "name": "_rquantity",
          "type": "uint256"
        },
        {
          "internalType": "uint256",
          "name": "_rprice",
          "type": "uint256"
        },
        {
          "internalType": "string",
          "name": "_rproductName",
          "type": "string"
        },
        {
          "internalType": "string",
          "name": "_rtransportMethod",
          "type": "string"
        }
      ],
      "name": "RetailerInsertDetails",
      "outputs": [],
      "stateMutability": "nonpayable",
      "type": "function"
    },
    {
      "inputs": [
        {
          "internalType": "string",
          "name": "_productId",
          "type": "string"
        }
      ],
      "name": "getCurrentRole",
      "outputs": [
        {
          "internalType": "enum Supplychain.SupplyChainRole",
          "name": "",
          "type": "uint8"
        }
      ],
      "stateMutability": "view",
      "type": "function"
    },
    {
      "inputs": [
        {
          "internalType": "string",
          "name": "_productId",
          "type": "string"
        }
      ],
      "name": "getProdStatus",
      "outputs": [
        {
          "internalType": "enum Supplychain.CheckProductStatus",
          "name": "",
          "type": "uint8"
        }
      ],
      "stateMutability": "view",
      "type": "function"
    },
    {
      "inputs": [
        {
          "internalType": "string",
          "name": "_productId",
          "type": "string"
        }
      ],
      "name": "getProductJourney",
      "outputs": [
        {
          "internalType": "string",
          "name": "",
          "type": "string"
        }
      ],
      "stateMutability": "view",
      "type": "function"
    }
  ],
  "bytecode": "0x6080604052348015600f57600080fd5b50612e718061001f6000396000f3fe608060405234801561001057600080fd5b50600436106100625760003560e01c806336a49d7d146100675780636b5ed7ca146100835780639157d674146100b3578063f01da4e1146100cf578063f8b951e5146100eb578063f9da79371461011b575b600080fd5b610081600480360381019061007c9190611e4f565b61014b565b005b61009d60048036038101906100989190611fc1565b610537565b6040516100aa9190612081565b60405180910390f35b6100cd60048036038101906100c8919061209c565b6105b2565b005b6100e960048036038101906100e4919061209c565b6109ea565b005b61010560048036038101906101009190611fc1565b610e24565b6040516101129190612212565b60405180910390f35b61013560048036038101906101309190611fc1565b610e9f565b60405161014291906122ac565b60405180910390f35b600089511161018f576040517f08c379a00000000000000000000000000000000000000000000000000000000081526004016101869061231a565b60405180910390fd5b600560008060028111156101a6576101a561200a565b5b60028111156101b8576101b761200a565b5b8152602001908152602001600020896040516101d49190612376565b908152602001604051809103902060009054906101000a900460ff1615610230576040517f08c379a0000000000000000000000000000000000000000000000000000000008152600401610227906123ff565b60405180910390fd5b6040518061012001604052808a81526020018981526020018881526020018781526020018681526020018581526020018481526020018381526020018281525060018a6040516102809190612376565b908152602001604051809103902060008201518160000190816102a3919061262b565b5060208201518160010190816102b9919061262b565b5060408201518160020190816102cf919061262b565b50606082015181600301556080820151816004015560a08201518160050190816102f9919061262b565b5060c0820151816006015560e0820151816007019081610319919061262b565b50610100820151816008019081610330919061262b565b50905050600060048a6040516103469190612376565b908152602001604051809103902060170160016101000a81548160ff021916908360028111156103795761037861200a565b5b02179055507f1ed9ffb7680bbce3f7a01c39b8d311ed1966ec950ead39ec05976c0124fccad68989866040516103b193929190612749565b60405180910390a16040518061012001604052808a81526020018981526020018881526020018781526020018681526020018581526020018481526020018381526020018281525060048a6040516104099190612376565b9081526020016040518091039020600001600082015181600001908161042f919061262b565b506020820151816001019081610445919061262b565b50604082015181600201908161045b919061262b565b50606082015181600301556080820151816004015560a0820151816005019081610485919061262b565b5060c0820151816006015560e08201518160070190816104a5919061262b565b506101008201518160080190816104bc919061262b565b509050506001600560008060028111156104d9576104d861200a565b5b60028111156104eb576104ea61200a565b5b81526020019081526020016000208a6040516105079190612376565b908152602001604051809103902060006101000a81548160ff021916908315150217905550505050505050505050565b60008082511161057c576040517f08c379a00000000000000000000000000000000000000000000000000000000081526004016105739061231a565b60405180910390fd5b60048260405161058c9190612376565b908152602001604051809103902060170160009054906101000a900460ff169050919050565b60008751116105f6576040517f08c379a00000000000000000000000000000000000000000000000000000000081526004016105ed9061231a565b60405180910390fd5b6005600060028081111561060d5761060c61200a565b5b600281111561061f5761061e61200a565b5b81526020019081526020016000208760405161063b9190612376565b908152602001604051809103902060009054906101000a900460ff1615610697576040517f08c379a000000000000000000000000000000000000000000000000000000000815260040161068e9061281a565b60405180910390fd5b6040518060e00160405280888152602001878152602001868152602001858152602001848152602001838152602001828152506003886040516106da9190612376565b908152602001604051809103902060008201518160000190816106fd919061262b565b506020820151816001019081610713919061262b565b506040820151816002019081610729919061262b565b50606082015181600301556080820151816004015560a0820151816005019081610753919061262b565b5060c0820151816006019081610769919061262b565b509050506040518060e00160405280888152602001878152602001868152602001858152602001848152602001838152602001828152506004886040516107b09190612376565b908152602001604051809103902060100160008201518160000190816107d6919061262b565b5060208201518160010190816107ec919061262b565b506040820151816002019081610802919061262b565b50606082015181600301556080820151816004015560a082015181600501908161082c919061262b565b5060c0820151816006019081610842919061262b565b5090505060026004886040516108589190612376565b908152602001604051809103902060170160006101000a81548160ff0219169083600281111561088b5761088a61200a565b5b0217905550336004886040516108a19190612376565b908152602001604051809103902060170160026101000a81548173ffffffffffffffffffffffffffffffffffffffff021916908373ffffffffffffffffffffffffffffffffffffffff16021790555060026004886040516109029190612376565b908152602001604051809103902060170160016101000a81548160ff021916908360028111156109355761093461200a565b5b02179055507fdde06215d53d6ac0857838335876af616bee552a91cb16fea09835197f54a76787878460405161096d93929190612749565b60405180910390a160016005600060028081111561098e5761098d61200a565b5b60028111156109a05761099f61200a565b5b8152602001908152602001600020886040516109bc9190612376565b908152602001604051809103902060006101000a81548160ff02191690831515021790555050505050505050565b6000875111610a2e576040517f08c379a0000000000000000000000000000000000000000000000000000000008152600401610a259061231a565b60405180910390fd5b6005600060016002811115610a4657610a4561200a565b5b6002811115610a5857610a5761200a565b5b815260200190815260200160002087604051610a749190612376565b908152602001604051809103902060009054906101000a900460ff1615610ad0576040517f08c379a0000000000000000000000000000000000000000000000000000000008152600401610ac7906128ac565b60405180910390fd5b6040518060e0016040528088815260200187815260200186815260200185815260200184815260200183815260200182815250600288604051610b139190612376565b90815260200160405180910390206000820151816000019081610b36919061262b565b506020820151816001019081610b4c919061262b565b506040820151816002019081610b62919061262b565b50606082015181600301556080820151816004015560a0820151816005019081610b8c919061262b565b5060c0820151816006019081610ba2919061262b565b509050506040518060e0016040528088815260200187815260200186815260200185815260200184815260200183815260200182815250600488604051610be99190612376565b90815260200160405180910390206009016000820151816000019081610c0f919061262b565b506020820151816001019081610c25919061262b565b506040820151816002019081610c3b919061262b565b50606082015181600301556080820151816004015560a0820151816005019081610c65919061262b565b5060c0820151816006019081610c7b919061262b565b509050506001600488604051610c919190612376565b908152602001604051809103902060170160006101000a81548160ff02191690836002811115610cc457610cc361200a565b5b021790555033600488604051610cda9190612376565b908152602001604051809103902060170160026101000a81548173ffffffffffffffffffffffffffffffffffffffff021916908373ffffffffffffffffffffffffffffffffffffffff1602179055506001600488604051610d3b9190612376565b908152602001604051809103902060170160016101000a81548160ff02191690836002811115610d6e57610d6d61200a565b5b02179055507f7722fde6b1ce7216155e9d28d8176f0b6748b2e3059798bcbaba80f51b31a237878784604051610da693929190612749565b60405180910390a160016005600060016002811115610dc857610dc761200a565b5b6002811115610dda57610dd961200a565b5b815260200190815260200160002088604051610df69190612376565b908152602001604051809103902060006101000a81548160ff02191690831515021790555050505050505050565b600080825111610e69576040517f08c379a0000000000000000000000000000000000000000000000000000000008152600401610e609061231a565b60405180910390fd5b600482604051610e799190612376565b908152602001604051809103902060170160019054906101000a900460ff169050919050565b60606000825111610ee5576040517f08c379a0000000000000000000000000000000000000000000000000000000008152600401610edc9061231a565b60405180910390fd5b6000600483604051610ef79190612376565b90815260200160405180910390206000016001018054610f169061244e565b905011610f58576040517f08c379a0000000000000000000000000000000000000000000000000000000008152600401610f4f90612918565b60405180910390fd5b6000600483604051610f6a9190612376565b90815260200160405180910390206040518060c00160405290816000820160405180610120016040529081600082018054610fa49061244e565b80601f0160208091040260200160405190810160405280929190818152602001828054610fd09061244e565b801561101d5780601f10610ff25761010080835404028352916020019161101d565b820191906000526020600020905b81548152906001019060200180831161100057829003601f168201915b505050505081526020016001820180546110369061244e565b80601f01602080910402602001604051908101604052809291908181526020018280546110629061244e565b80156110af5780601f10611084576101008083540402835291602001916110af565b820191906000526020600020905b81548152906001019060200180831161109257829003601f168201915b505050505081526020016002820180546110c89061244e565b80601f01602080910402602001604051908101604052809291908181526020018280546110f49061244e565b80156111415780601f1061111657610100808354040283529160200191611141565b820191906000526020600020905b81548152906001019060200180831161112457829003601f168201915b50505050508152602001600382015481526020016004820154815260200160058201805461116e9061244e565b80601f016020809104026020016040519081016040528092919081815260200182805461119a9061244e565b80156111e75780601f106111bc576101008083540402835291602001916111e7565b820191906000526020600020905b8154815290600101906020018083116111ca57829003601f168201915b505050505081526020016006820154815260200160078201805461120a9061244e565b80601f01602080910402602001604051908101604052809291908181526020018280546112369061244e565b80156112835780601f1061125857610100808354040283529160200191611283565b820191906000526020600020905b81548152906001019060200180831161126657829003601f168201915b5050505050815260200160088201805461129c9061244e565b80601f01602080910402602001604051908101604052809291908181526020018280546112c89061244e565b80156113155780601f106112ea57610100808354040283529160200191611315565b820191906000526020600020905b8154815290600101906020018083116112f857829003601f168201915b5050505050815250508152602001600982016040518060e00160405290816000820180546113429061244e565b80601f016020809104026020016040519081016040528092919081815260200182805461136e9061244e565b80156113bb5780601f10611390576101008083540402835291602001916113bb565b820191906000526020600020905b81548152906001019060200180831161139e57829003601f168201915b505050505081526020016001820180546113d49061244e565b80601f01602080910402602001604051908101604052809291908181526020018280546114009061244e565b801561144d5780601f106114225761010080835404028352916020019161144d565b820191906000526020600020905b81548152906001019060200180831161143057829003601f168201915b505050505081526020016002820180546114669061244e565b80601f01602080910402602001604051908101604052809291908181526020018280546114929061244e565b80156114df5780601f106114b4576101008083540402835291602001916114df565b820191906000526020600020905b8154815290600101906020018083116114c257829003601f168201915b50505050508152602001600382015481526020016004820154815260200160058201805461150c9061244e565b80601f01602080910402602001604051908101604052809291908181526020018280546115389061244e565b80156115855780601f1061155a57610100808354040283529160200191611585565b820191906000526020600020905b81548152906001019060200180831161156857829003601f168201915b5050505050815260200160068201805461159e9061244e565b80601f01602080910402602001604051908101604052809291908181526020018280546115ca9061244e565b80156116175780601f106115ec57610100808354040283529160200191611617565b820191906000526020600020905b8154815290600101906020018083116115fa57829003601f168201915b5050505050815250508152602001601082016040518060e00160405290816000820180546116449061244e565b80601f01602080910402602001604051908101604052809291908181526020018280546116709061244e565b80156116bd5780601f10611692576101008083540402835291602001916116bd565b820191906000526020600020905b8154815290600101906020018083116116a057829003601f168201915b505050505081526020016001820180546116d69061244e565b80601f01602080910402602001604051908101604052809291908181526020018280546117029061244e565b801561174f5780601f106117245761010080835404028352916020019161174f565b820191906000526020600020905b81548152906001019060200180831161173257829003601f168201915b505050505081526020016002820180546117689061244e565b80601f01602080910402602001604051908101604052809291908181526020018280546117949061244e565b80156117e15780601f106117b6576101008083540402835291602001916117e1565b820191906000526020600020905b8154815290600101906020018083116117c457829003601f168201915b50505050508152602001600382015481526020016004820154815260200160058201805461180e9061244e565b80601f016020809104026020016040519081016040528092919081815260200182805461183a9061244e565b80156118875780601f1061185c57610100808354040283529160200191611887565b820191906000526020600020905b81548152906001019060200180831161186a57829003601f168201915b505050505081526020016006820180546118a09061244e565b80601f01602080910402602001604051908101604052809291908181526020018280546118cc9061244e565b80156119195780601f106118ee57610100808354040283529160200191611919565b820191906000526020600020905b8154815290600101906020018083116118fc57829003601f168201915b50505050508152505081526020016017820160009054906101000a900460ff16600281111561194b5761194a61200a565b5b600281111561195d5761195c61200a565b5b81526020016017820160019054906101000a900460ff1660028111156119865761198561200a565b5b60028111156119985761199761200a565b5b81526020016017820160029054906101000a900473ffffffffffffffffffffffffffffffffffffffff1673ffffffffffffffffffffffffffffffffffffffff1673ffffffffffffffffffffffffffffffffffffffff1681525050905060006040518060200160405280600081525090506000826000015160200151511115611a5957816000015160200151826000015160400151836000015160a00151604051602001611a4793929190612a1c565b60405160208183030381529060405290505b6000826020015160200151511115611aac5780826020015160200151836020015160400151846020015160a00151604051602001611a9a9493929190612b06565b60405160208183030381529060405290505b6000826040015160200151511115611b075780826040015160200151836040015160400151611ae2856040015160800151611b3d565b604051602001611af59493929190612bfd565b60405160208183030381529060405290505b6000815103611b3257604051806060016040528060218152602001612e1b6021913992505050611b38565b80925050505b919050565b606060008203611b84576040518060400160405280600181526020017f30000000000000000000000000000000000000000000000000000000000000008152509050611cba565b600082905060005b60008214611bb6578080611b9f90612c8b565b915050600a82611baf9190612d02565b9150611b8c565b60008167ffffffffffffffff811115611bd257611bd1611cee565b5b6040519080825280601f01601f191660200182016040528015611c045781602001600182028036833780820191505090505b50905060008290505b60008614611cb257600181611c229190612d33565b90506000600a8088611c349190612d02565b611c3e9190612d67565b87611c499190612d33565b6030611c559190612db6565b90508060f81b838381518110611c6e57611c6d612deb565b5b60200101907effffffffffffffffffffffffffffffffffffffffffffffffffffffffffffff1916908160001a905350600a87611caa9190612d02565b965050611c0d565b819450505050505b919050565b6000604051905090565b600080fd5b600080fd5b600080fd5b600080fd5b6000601f19601f8301169050919050565b7f4e487b7100000000000000000000000000000000000000000000000000000000600052604160045260246000fd5b611d2682611cdd565b810181811067ffffffffffffffff82111715611d4557611d44611cee565b5b80604052505050565b6000611d58611cbf565b9050611d648282611d1d565b919050565b600067ffffffffffffffff821115611d8457611d83611cee565b5b611d8d82611cdd565b9050602081019050919050565b82818337600083830152505050565b6000611dbc611db784611d69565b611d4e565b905082815260208101848484011115611dd857611dd7611cd8565b5b611de3848285611d9a565b509392505050565b600082601f830112611e0057611dff611cd3565b5b8135611e10848260208601611da9565b91505092915050565b6000819050919050565b611e2c81611e19565b8114611e3757600080fd5b50565b600081359050611e4981611e23565b92915050565b60008060008060008060008060006101208a8c031215611e7257611e71611cc9565b5b60008a013567ffffffffffffffff811115611e9057611e8f611cce565b5b611e9c8c828d01611deb565b99505060208a013567ffffffffffffffff811115611ebd57611ebc611cce565b5b611ec98c828d01611deb565b98505060408a013567ffffffffffffffff811115611eea57611ee9611cce565b5b611ef68c828d01611deb565b9750506060611f078c828d01611e3a565b9650506080611f188c828d01611e3a565b95505060a08a013567ffffffffffffffff811115611f3957611f38611cce565b5b611f458c828d01611deb565b94505060c0611f568c828d01611e3a565b93505060e08a013567ffffffffffffffff811115611f7757611f76611cce565b5b611f838c828d01611deb565b9250506101008a013567ffffffffffffffff811115611fa557611fa4611cce565b5b611fb18c828d01611deb565b9150509295985092959850929598565b600060208284031215611fd757611fd6611cc9565b5b600082013567ffffffffffffffff811115611ff557611ff4611cce565b5b61200184828501611deb565b91505092915050565b7f4e487b7100000000000000000000000000000000000000000000000000000000600052602160045260246000fd5b6003811061204a5761204961200a565b5b50565b600081905061205b82612039565b919050565b600061206b8261204d565b9050919050565b61207b81612060565b82525050565b60006020820190506120966000830184612072565b92915050565b600080600080600080600060e0888a0312156120bb576120ba611cc9565b5b600088013567ffffffffffffffff8111156120d9576120d8611cce565b5b6120e58a828b01611deb565b975050602088013567ffffffffffffffff81111561210657612105611cce565b5b6121128a828b01611deb565b965050604088013567ffffffffffffffff81111561213357612132611cce565b5b61213f8a828b01611deb565b95505060606121508a828b01611e3a565b94505060806121618a828b01611e3a565b93505060a088013567ffffffffffffffff81111561218257612181611cce565b5b61218e8a828b01611deb565b92505060c088013567ffffffffffffffff8111156121af576121ae611cce565b5b6121bb8a828b01611deb565b91505092959891949750929550565b600381106121db576121da61200a565b5b50565b60008190506121ec826121ca565b919050565b60006121fc826121de565b9050919050565b61220c816121f1565b82525050565b60006020820190506122276000830184612203565b92915050565b600081519050919050565b600082825260208201905092915050565b60005b8381101561226757808201518184015260208101905061224c565b60008484015250505050565b600061227e8261222d565b6122888185612238565b9350612298818560208601612249565b6122a181611cdd565b840191505092915050565b600060208201905081810360008301526122c68184612273565b905092915050565b7f50726f647563742049442063616e6e6f7420626520656d707479000000000000600082015250565b6000612304601a83612238565b915061230f826122ce565b602082019050919050565b60006020820190508181036000830152612333816122f7565b9050919050565b600081905092915050565b60006123508261222d565b61235a818561233a565b935061236a818560208601612249565b80840191505092915050565b60006123828284612345565b915081905092915050565b7f50726f6475637420494420616c72656164792065786973747320666f7220466160008201527f726d657220726f6c650000000000000000000000000000000000000000000000602082015250565b60006123e9602983612238565b91506123f48261238d565b604082019050919050565b60006020820190508181036000830152612418816123dc565b9050919050565b7f4e487b7100000000000000000000000000000000000000000000000000000000600052602260045260246000fd5b6000600282049050600182168061246657607f821691505b6020821081036124795761247861241f565b5b50919050565b60008190508160005260206000209050919050565b60006020601f8301049050919050565b600082821b905092915050565b6000600883026124e17fffffffffffffffffffffffffffffffffffffffffffffffffffffffffffffffff826124a4565b6124eb86836124a4565b95508019841693508086168417925050509392505050565b6000819050919050565b600061252861252361251e84611e19565b612503565b611e19565b9050919050565b6000819050919050565b6125428361250d565b61255661254e8261252f565b8484546124b1565b825550505050565b600090565b61256b61255e565b612576818484612539565b505050565b5b8181101561259a5761258f600082612563565b60018101905061257c565b5050565b601f8211156125df576125b08161247f565b6125b984612494565b810160208510156125c8578190505b6125dc6125d485612494565b83018261257b565b50505b505050565b600082821c905092915050565b6000612602600019846008026125e4565b1980831691505092915050565b600061261b83836125f1565b9150826002028217905092915050565b6126348261222d565b67ffffffffffffffff81111561264d5761264c611cee565b5b612657825461244e565b61266282828561259e565b600060209050601f8311600181146126955760008415612683578287015190505b61268d858261260f565b8655506126f5565b601f1984166126a38661247f565b60005b828110156126cb578489015182556001820191506020850194506020810190506126a6565b868310156126e857848901516126e4601f8916826125f1565b8355505b6001600288020188555050505b505050505050565b7f496e736572746564000000000000000000000000000000000000000000000000600082015250565b6000612733600883612238565b915061273e826126fd565b602082019050919050565b600060808201905081810360008301526127638186612273565b905081810360208301526127778185612273565b9050818103604083015261278b8184612273565b9050818103606083015261279e81612726565b9050949350505050565b7f50726f6475637420494420616c72656164792065786973747320666f7220526560008201527f7461696c657220726f6c65000000000000000000000000000000000000000000602082015250565b6000612804602b83612238565b915061280f826127a8565b604082019050919050565b60006020820190508181036000830152612833816127f7565b9050919050565b7f50726f6475637420494420616c72656164792065786973747320666f7220446960008201527f737472696275746f7220726f6c65000000000000000000000000000000000000602082015250565b6000612896602e83612238565b91506128a18261283a565b604082019050919050565b600060208201905081810360008301526128c581612889565b9050919050565b7f50726f64756374206e6f7420666f756e64000000000000000000000000000000600082015250565b6000612902601183612238565b915061290d826128cc565b602082019050919050565b60006020820190508181036000830152612931816128f5565b9050919050565b7f4661726d65642062793a20000000000000000000000000000000000000000000600082015250565b600061296e600b8361233a565b915061297982612938565b600b82019050919050565b7f2c20617420000000000000000000000000000000000000000000000000000000600082015250565b60006129ba60058361233a565b91506129c582612984565b600582019050919050565b7f2c2070726f647563743a20000000000000000000000000000000000000000000600082015250565b6000612a06600b8361233a565b9150612a11826129d0565b600b82019050919050565b6000612a2782612961565b9150612a338286612345565b9150612a3e826129ad565b9150612a4a8285612345565b9150612a55826129f9565b9150612a618284612345565b9150819050949350505050565b7f207c2044697374726962757465642062793a2000000000000000000000000000600082015250565b6000612aa460138361233a565b9150612aaf82612a6e565b601382019050919050565b7f2c2066726f6d2000000000000000000000000000000000000000000000000000600082015250565b6000612af060078361233a565b9150612afb82612aba565b600782019050919050565b6000612b128287612345565b9150612b1d82612a97565b9150612b298286612345565b9150612b3482612ae3565b9150612b408285612345565b9150612b4b826129f9565b9150612b578284612345565b915081905095945050505050565b7f207c20536f6c642062793a200000000000000000000000000000000000000000600082015250565b6000612b9b600c8361233a565b9150612ba682612b65565b600c82019050919050565b7f696e000000000000000000000000000000000000000000000000000000000000600082015250565b6000612be760028361233a565b9150612bf282612bb1565b600282019050919050565b6000612c098287612345565b9150612c1482612b8e565b9150612c208286612345565b9150612c2b826129ad565b9150612c378285612345565b9150612c4282612bda565b9150612c4e8284612345565b915081905095945050505050565b7f4e487b7100000000000000000000000000000000000000000000000000000000600052601160045260246000fd5b6000612c9682611e19565b91507fffffffffffffffffffffffffffffffffffffffffffffffffffffffffffffffff8203612cc857612cc7612c5c565b5b600182019050919050565b7f4e487b7100000000000000000000000000000000000000000000000000000000600052601260045260246000fd5b6000612d0d82611e19565b9150612d1883611e19565b925082612d2857612d27612cd3565b5b828204905092915050565b6000612d3e82611e19565b9150612d4983611e19565b9250828203905081811115612d6157612d60612c5c565b5b92915050565b6000612d7282611e19565b9150612d7d83611e19565b9250828202612d8b81611e19565b91508282048414831517612da257612da1612c5c565b5b5092915050565b600060ff82169050919050565b6000612dc182612da9565b9150612dcc83612da9565b9250828201905060ff811115612de557612de4612c5c565b5b92915050565b7f4e487b7100000000000000000000000000000000000000000000000000000000600052603260045260246000fdfe4e6f206a6f75726e657920696e666f726d6174696f6e20617661696c61626c652ea2646970667358221220b7308b0b380447db02f4b080afaad782ef3949c5f49ff51cf4ae20fcf6e5bbdd64736f6c634300081c0033",
  "linkReferences": {},
  "deployedLinkReferences": {}
}